{
  "contractName": "ConvertLib",
  "abi": [
    {
      "inputs": [
        {
          "internalType": "uint256",
          "name": "amount",
          "type": "uint256"
        },
        {
          "internalType": "uint256",
          "name": "conversionRate",
          "type": "uint256"
        }
      ],
      "name": "convert",
      "outputs": [
        {
          "internalType": "uint256",
          "name": "convertedAmount",
          "type": "uint256"
        }
      ],
      "stateMutability": "pure",
      "type": "function",
      "constant": true
    }
  ],
  "bytecode": "0x6101cc610053600b82828239805160001a607314610046577f4e487b7100000000000000000000000000000000000000000000000000000000600052600060045260246000fd5b30600052607381538281f3fe73000000000000000000000000000000000000000030146080604052600436106100355760003560e01c806396e4ee3d1461003a575b600080fd5b610054600480360381019061004f91906100bb565b61006a565b604051610061919061010a565b60405180910390f35b600081836100789190610154565b905092915050565b600080fd5b6000819050919050565b61009881610085565b81146100a357600080fd5b50565b6000813590506100b58161008f565b92915050565b600080604083850312156100d2576100d1610080565b5b60006100e0858286016100a6565b92505060206100f1858286016100a6565b9150509250929050565b61010481610085565b82525050565b600060208201905061011f60008301846100fb565b92915050565b7f4e487b7100000000000000000000000000000000000000000000000000000000600052601160045260246000fd5b600061015f82610085565b915061016a83610085565b925082820261017881610085565b9150828204841483151761018f5761018e610125565b5b509291505056fea2646970667358221220c2abac6591f6a88b3bbe861188aacbd990e0e376f9db5b31d8ba7259fddde01164736f6c63430008110033",
  "immutableReferences": {},
  "source": "// SPDX-License-Identifier: MIT\npragma solidity ^0.8.13;\n\n// A library is like a contract with reusable code, which can be called by other contracts.\n// Deploying common code can reduce gas costs.\nlibrary ConvertLib{\n\tfunction convert(uint amount, uint conversionRate) public pure returns (uint convertedAmount)\n\t{\n\t\treturn amount * conversionRate;\n\t}\n}\n",
  "sourcePath": "/home/fzj/IOT/ABAC-IOT-SYSTEM/contract/contracts/ConvertLib.sol",
  "compiler": {
    "name": "solc",
    "version": "0.8.17+commit.8df45f5f.Emscripten.clang"
  },
  "schemaVersion": "3.4.11",
  "updatedAt": "2023-05-06T02:52:49.078Z",
  "networkType": "ethereum",
  "devdoc": {
    "kind": "dev",
    "methods": {},
    "version": 1
  },
  "userdoc": {
    "kind": "user",
    "methods": {},
    "version": 1
  }
}