{
  "contractName": "Attributes",
  "abi": [
    {
      "inputs": [
        {
          "internalType": "string",
          "name": "initPolicy",
          "type": "string"
        }
      ],
      "stateMutability": "nonpayable",
      "type": "constructor"
    },
    {
      "inputs": [],
      "name": "hashPolicy",
      "outputs": [
        {
          "internalType": "bytes32",
          "name": "",
          "type": "bytes32"
        }
      ],
      "stateMutability": "view",
      "type": "function",
      "constant": true
    },
    {
      "inputs": [],
      "name": "policy",
      "outputs": [
        {
          "internalType": "string",
          "name": "",
          "type": "string"
        }
      ],
      "stateMutability": "view",
      "type": "function",
      "constant": true
    },
    {
      "inputs": [
        {
          "internalType": "string",
          "name": "newPolicy",
          "type": "string"
        }
      ],
      "name": "setPolicy",
      "outputs": [],
      "stateMutability": "payable",
      "type": "function",
      "payable": true
    },
    {
      "inputs": [],
      "name": "getPolicy",
      "outputs": [
        {
          "internalType": "string",
          "name": "",
          "type": "string"
        }
      ],
      "stateMutability": "view",
      "type": "function",
      "constant": true
    },
    {
      "inputs": [],
      "name": "getHashPolicy",
      "outputs": [
        {
          "internalType": "bytes32",
          "name": "",
          "type": "bytes32"
        }
      ],
      "stateMutability": "view",
      "type": "function",
      "constant": true
    },
    {
      "inputs": [
        {
          "internalType": "string",
          "name": "message",
          "type": "string"
        }
      ],
      "name": "hash",
      "outputs": [
        {
          "internalType": "bytes32",
          "name": "",
          "type": "bytes32"
        }
      ],
      "stateMutability": "pure",
      "type": "function",
      "constant": true
    }
  ],
  "bytecode": "0x60806040523480156200001157600080fd5b5060405162001000380380620010008339818101604052810190620000379190620002be565b80600090816200004891906200055a565b50620000ec600080546200005c9062000349565b80601f01602080910402602001604051908101604052809291908181526020018280546200008a9062000349565b8015620000db5780601f10620000af57610100808354040283529160200191620000db565b820191906000526020600020905b815481529060010190602001808311620000bd57829003601f168201915b5050505050620000f960201b60201c565b600181905550506200069c565b6000816040516020016200010e919062000683565b604051602081830303815290604052805190602001209050919050565b6000604051905090565b600080fd5b600080fd5b600080fd5b600080fd5b6000601f19601f8301169050919050565b7f4e487b7100000000000000000000000000000000000000000000000000000000600052604160045260246000fd5b620001948262000149565b810181811067ffffffffffffffff82111715620001b657620001b56200015a565b5b80604052505050565b6000620001cb6200012b565b9050620001d9828262000189565b919050565b600067ffffffffffffffff821115620001fc57620001fb6200015a565b5b620002078262000149565b9050602081019050919050565b60005b838110156200023457808201518184015260208101905062000217565b60008484015250505050565b6000620002576200025184620001de565b620001bf565b90508281526020810184848401111562000276576200027562000144565b5b6200028384828562000214565b509392505050565b600082601f830112620002a357620002a26200013f565b5b8151620002b584826020860162000240565b91505092915050565b600060208284031215620002d757620002d662000135565b5b600082015167ffffffffffffffff811115620002f857620002f76200013a565b5b62000306848285016200028b565b91505092915050565b600081519050919050565b7f4e487b7100000000000000000000000000000000000000000000000000000000600052602260045260246000fd5b600060028204905060018216806200036257607f821691505b6020821081036200037857620003776200031a565b5b50919050565b60008190508160005260206000209050919050565b60006020601f8301049050919050565b600082821b905092915050565b600060088302620003e27fffffffffffffffffffffffffffffffffffffffffffffffffffffffffffffffff82620003a3565b620003ee8683620003a3565b95508019841693508086168417925050509392505050565b6000819050919050565b6000819050919050565b60006200043b620004356200042f8462000406565b62000410565b62000406565b9050919050565b6000819050919050565b62000457836200041a565b6200046f620004668262000442565b848454620003b0565b825550505050565b600090565b6200048662000477565b620004938184846200044c565b505050565b5b81811015620004bb57620004af6000826200047c565b60018101905062000499565b5050565b601f8211156200050a57620004d4816200037e565b620004df8462000393565b81016020851015620004ef578190505b62000507620004fe8562000393565b83018262000498565b50505b505050565b600082821c905092915050565b60006200052f600019846008026200050f565b1980831691505092915050565b60006200054a83836200051c565b9150826002028217905092915050565b62000565826200030f565b67ffffffffffffffff8111156200058157620005806200015a565b5b6200058d825462000349565b6200059a828285620004bf565b600060209050601f831160018114620005d25760008415620005bd578287015190505b620005c985826200053c565b86555062000639565b601f198416620005e2866200037e565b60005b828110156200060c57848901518255600182019150602085019450602081019050620005e5565b868310156200062c578489015162000628601f8916826200051c565b8355505b6001600288020188555050505b505050505050565b600081905092915050565b600062000659826200030f565b62000665818562000641565b93506200067781856020860162000214565b80840191505092915050565b60006200069182846200064c565b915081905092915050565b61095480620006ac6000396000f3fe6080604052600436106100555760003560e01c80630505c8c91461005a5780636b4c991b146100855780637fce0510146100a1578063b411ee94146100cc578063b9f0b03a14610109578063ce1e462614610134575b600080fd5b34801561006657600080fd5b5061006f61015f565b60405161007c91906103fb565b60405180910390f35b61009f600480360381019061009a9190610566565b6101ed565b005b3480156100ad57600080fd5b506100b6610299565b6040516100c391906105c8565b60405180910390f35b3480156100d857600080fd5b506100f360048036038101906100ee9190610566565b61029f565b60405161010091906105c8565b60405180910390f35b34801561011557600080fd5b5061011e6102cf565b60405161012b91906105c8565b60405180910390f35b34801561014057600080fd5b506101496102d9565b60405161015691906103fb565b60405180910390f35b6000805461016c90610612565b80601f016020809104026020016040519081016040528092919081815260200182805461019890610612565b80156101e55780601f106101ba576101008083540402835291602001916101e5565b820191906000526020600020905b8154815290600101906020018083116101c857829003601f168201915b505050505081565b80600090816101fc91906107f9565b506102906000805461020d90610612565b80601f016020809104026020016040519081016040528092919081815260200182805461023990610612565b80156102865780601f1061025b57610100808354040283529160200191610286565b820191906000526020600020905b81548152906001019060200180831161026957829003601f168201915b505050505061029f565b60018190555050565b60015481565b6000816040516020016102b29190610907565b604051602081830303815290604052805190602001209050919050565b6000600154905090565b6060600080546102e890610612565b80601f016020809104026020016040519081016040528092919081815260200182805461031490610612565b80156103615780601f1061033657610100808354040283529160200191610361565b820191906000526020600020905b81548152906001019060200180831161034457829003601f168201915b5050505050905090565b600081519050919050565b600082825260208201905092915050565b60005b838110156103a557808201518184015260208101905061038a565b60008484015250505050565b6000601f19601f8301169050919050565b60006103cd8261036b565b6103d78185610376565b93506103e7818560208601610387565b6103f0816103b1565b840191505092915050565b6000602082019050818103600083015261041581846103c2565b905092915050565b6000604051905090565b600080fd5b600080fd5b600080fd5b600080fd5b7f4e487b7100000000000000000000000000000000000000000000000000000000600052604160045260246000fd5b610473826103b1565b810181811067ffffffffffffffff821117156104925761049161043b565b5b80604052505050565b60006104a561041d565b90506104b1828261046a565b919050565b600067ffffffffffffffff8211156104d1576104d061043b565b5b6104da826103b1565b9050602081019050919050565b82818337600083830152505050565b6000610509610504846104b6565b61049b565b90508281526020810184848401111561052557610524610436565b5b6105308482856104e7565b509392505050565b600082601f83011261054d5761054c610431565b5b813561055d8482602086016104f6565b91505092915050565b60006020828403121561057c5761057b610427565b5b600082013567ffffffffffffffff81111561059a5761059961042c565b5b6105a684828501610538565b91505092915050565b6000819050919050565b6105c2816105af565b82525050565b60006020820190506105dd60008301846105b9565b92915050565b7f4e487b7100000000000000000000000000000000000000000000000000000000600052602260045260246000fd5b6000600282049050600182168061062a57607f821691505b60208210810361063d5761063c6105e3565b5b50919050565b60008190508160005260206000209050919050565b60006020601f8301049050919050565b600082821b905092915050565b6000600883026106a57fffffffffffffffffffffffffffffffffffffffffffffffffffffffffffffffff82610668565b6106af8683610668565b95508019841693508086168417925050509392505050565b6000819050919050565b6000819050919050565b60006106f66106f16106ec846106c7565b6106d1565b6106c7565b9050919050565b6000819050919050565b610710836106db565b61072461071c826106fd565b848454610675565b825550505050565b600090565b61073961072c565b610744818484610707565b505050565b5b818110156107685761075d600082610731565b60018101905061074a565b5050565b601f8211156107ad5761077e81610643565b61078784610658565b81016020851015610796578190505b6107aa6107a285610658565b830182610749565b50505b505050565b600082821c905092915050565b60006107d0600019846008026107b2565b1980831691505092915050565b60006107e983836107bf565b9150826002028217905092915050565b6108028261036b565b67ffffffffffffffff81111561081b5761081a61043b565b5b6108258254610612565b61083082828561076c565b600060209050601f8311600181146108635760008415610851578287015190505b61085b85826107dd565b8655506108c3565b601f19841661087186610643565b60005b8281101561089957848901518255600182019150602085019450602081019050610874565b868310156108b657848901516108b2601f8916826107bf565b8355505b6001600288020188555050505b505050505050565b600081905092915050565b60006108e18261036b565b6108eb81856108cb565b93506108fb818560208601610387565b80840191505092915050565b600061091382846108d6565b91508190509291505056fea264697066735822122019995ffe97ded42cc43979f0dbdc39bd3956bec981393117632b4be6ec8a5f7664736f6c63430008110033",
  "immutableReferences": {},
  "source": "pragma solidity ^0.8.17;\n\ncontract Attributes {\n    string public policy;\n    bytes32 public hashPolicy;\n\n    constructor(string memory initPolicy) {\n        policy = initPolicy;\n        hashPolicy = hash(policy);\n    }\n\n    function setPolicy(string memory newPolicy) public payable {\n        policy = newPolicy;\n        hashPolicy = hash(policy);\n    }\n\n    function getPolicy() public view returns (string memory) {\n        return policy;\n    }\n\n    function getHashPolicy() public view returns (bytes32) {\n        return hashPolicy;\n    }\n\n    function hash(string memory message) public pure returns (bytes32) {\n        return keccak256(abi.encodePacked(message));\n    }\n}\n",
  "sourcePath": "/home/fzj/code/solidity/Web3Demo/demo1/demo/contracts/Attributes.sol",
  "compiler": {
    "name": "solc",
    "version": "0.8.17+commit.8df45f5f.Emscripten.clang"
  },
  "schemaVersion": "3.4.11",
  "updatedAt": "2023-02-19T11:28:56.038Z",
  "networkType": "ethereum",
  "devdoc": {
    "kind": "dev",
    "methods": {},
    "version": 1
  },
  "userdoc": {
    "kind": "user",
    "methods": {},
    "version": 1
  }
}